:1000000012C024C023C022C021C020C01FC01EC0F7
:100010001DC01CC01BC01AC019C018C017C016C014
:1000200015C014C013C011241FBECFE5D4E0DEBF3D
:10003000CDBF12E0A0E6B0E0E8ECF9E002C0059028
:100040000D92AC3BB107D9F719D0BCC4D9CF80E62B
:1000500090E0089580E492E00895181619066CF473
:1000600020E030E0EFECF7E03197F1F700C000005E
:100070002F5F3F4F82179307A9F70895CF93DF9320
:10008000CDB7DEB72B970FB6F894DEBF0FBECDBF4E
:10009000899AADD18FD181E890E0C6D084E690E016
:1000A000C3D061D180E290E0BFD082E090E0BCD0CC
:1000B0006EE670E08AE090E063D163E070E083E098
:1000C00090E06BD181EA90E0AFD088EC90E0ACD0CA
:1000D0008FE992E0B2D065E070E085E090E05DD11C
:1000E0006EE670E08AE090E04BD1E12CF12CCC245C
:1000F000C394D12C00E010E099249A94CE0101968B
:100100005C010F2EF7EB4F2EF2E05F2EF02D7724DF
:100110007A94812C292C312CC1011CD182E090E0F1
:100120009CDFC10117D182E090E097DF80E090E092
:1001300011D180E090E00ED182E090E08EDF91E17D
:10014000E916F10409F057C061E070E081E090E049
:1001500024D168E770E088E790E012D1CA94CD28F6
:1001600031F488E190E0F6D0C12CD12C06C080E0BB
:1001700090E0F0D0CC24C394D12C6EE670E08AE0FD
:1001800090E0FED08DEA92E058D0C50156D00436FA
:10019000110544F40F5F1F4F043611052CF000E0E9
:1001A00010E002C000E010E01F930F935F924F92A7
:1001B000BF92AF922FD18AEB92E03FD00F900F9079
:1001C0000F900F900F900F909FEF991204C082B381
:1001D00012BA982C02C0919A972C6EE670E08AE0D1
:1001E00090E0CED065E070E085E090E0D6D0EE24DF
:1001F000E394F12C8FCF8FEFE81AF80A93E1E91618
:10020000F1040CF487CFFFCFF5D088E790E0FBD066
:1002100080E090E0F8D00895EDD088E790E0F3D04A
:1002200080E490E0F0D00895CF93C82FEDDF8C2FBD
:1002300090E0E9D0E5D0CF9108952F923F924F9270
:100240005F926F927F928F929F92AF92BF92CF9266
:10025000DF92EF92FF920F931F93CF93DF93CDB76F
:10026000DEB728970FB6F894DEBF0FBECDBF9A83D6
:100270008983D2DFEFDE8D839E83E9DE9C838B83CF
:10028000C980DA80212C312C3C015C0185E2A81A5E
:100290008EEFB80A85E090E02C01461857082EC072
:1002A000F80181918F01F601908198131BC0920192
:1002B000280D391DC401861997098217930794F4F4
:1002C0007401F5E0EF0EF11C98868F82EF81F885BE
:1002D0008191F887EF8390E096D08F8198858E1575
:1002E0009F05A1F795E0890E911C8A149B04C1F625
:1002F000EFEF2E1A3E0AFFEFCF1ADF0AE981FA81EB
:1003000001900020E9F7319789819A81E81BF90B68
:100310002E163F0628F40D811E818B809C80C0CF55
:100320006FD028960FB6F894DEBF0FBECDBFDF9119
:10033000CF911F910F91FF90EF90DF90CF90BF90E2
:10034000AF909F908F907F906F905F904F903F9075
:100350002F900895CF93C82F5FDF8C2F90E053D05C
:100360004FD0CF910895CF93DF9356DFC0E0D4E014
:1003700080E0F0DF2197E1F743D0DF91CF9108953E
:10038000CF93DF93D82FC62F81E24EDF8D2F4CDF26
:100390008C2F4ADFDF91CF910895CF93DF93D82F31
:1003A000C62F82E241DF8D2F3FDF8C2F3DDFDF91B3
:1003B000CF9108958DE838DF84E136DF80E234DFC5
:1003C00080E032DF81EA30DF88EC2EDF81E82CDF4D
:1003D00084E62ADF89ED28DF81EF26DF8FEA24DF3C
:1003E0008FE097E20197F1F700C00000089582E0E6
:1003F00080B9089584EA86BF06B607FEFDCF08954A
:1004000084E986BF089583B984E886BF06B607FEEF
:10041000FDCF0895AEE0B0E0EFE0F2E0AAC20D89B2
:100420001E8986E08C831A8309838FEF9FE79E8362
:100430008D83AE01475E5F4F6F89788DCE01019647
:1004400008D0EF81F885E00FF11F10822E96E4E0CE
:10045000ACC2ABE0B0E0EEE2F2E07DC26C017B0149
:100460008A01FC0117821682838181FFBFC1CE0100
:1004700001963C01F6019381F70193FD859193FF6D
:1004800081917F01882309F4ADC1853239F493FD50
:10049000859193FF81917F01853221F4B60190E02F
:1004A000C0D1E8CF912C212C312CFFE1F315D8F0ED
:1004B0008B3279F038F4803279F08332A1F4232D35
:1004C00020611DC08D3261F0803369F4232D2160DD
:1004D00016C0832D8260382EE32DE4603E2E2AC0A4
:1004E000F32DF8601DC037FC2DC020ED280F2A30F9
:1004F00040F08E32B9F436FC75C1232D2064322EC3
:1005000019C036FE06C08AE0989E200D1124922E56
:1005100011C0EAE02E9E200D1124222EF32DF06250
:100520003F2E08C08C3621F4832D8068382E02C0FF
:10053000883641F4F70193FD859193FF81917F0106
:100540008111B3CF982F9F7D9554933028F40C5F81
:100550001F4F9FE399830DC0833631F0833771F0CD
:10056000833509F055C020C0F801808189830E5F72
:100570001F4F88248394912C530112C02801F2E06C
:100580004F0E511CF801A080B18036FE03C0692DCA
:1005900070E002C06FEF7FEFC50138D14C018201DE
:1005A000F32DFF773F2E15C0280122E0420E511C8B
:1005B000F801A080B18036FE03C0692D70E002C052
:1005C0006FEF7FEFC50117D14C01F32DF0683F2E7F
:1005D000820133FC19C0822D90E088169906A0F4A0
:1005E000B60180E290E01DD12A94F5CFF50137FCE9
:1005F000859137FE81915F01B60190E012D1211003
:100600002A9421E0821A91088114910479F7E1C0BB
:10061000843611F0893639F5F80137FE07C060815C
:100620007181828193810C5F1F4F08C0608171814D
:10063000072E000C880B990B0E5F1F4FF32DFF76D2
:100640003F2E97FF09C090958095709561957F4FDB
:100650008F4F9F4FF0683F2E2AE030E0A3011DD15D
:10066000882E861844C0853731F4232D2F7EB22E74
:100670002AE030E025C0932D997FB92E8F36C1F046
:1006800018F4883579F0AEC0803719F0883721F03A
:10069000A9C0E92FE061BE2EB4FE0DC0FB2DF460B1
:1006A000BF2E09C034FE0AC0292F2660B22E06C014
:1006B00028E030E005C020E130E002C020E132E077
:1006C000F801B7FE07C060817181828193810C5F60
:1006D0001F4F06C06081718180E090E00E5F1F4F68
:1006E000A301DBD0882E8618FB2DFF773F2E36FE28
:1006F0000DC0232D2E7FA22E891458F434FE0BC07A
:1007000032FC09C0832D8E7EA82E05C0B82CA32CE8
:1007100003C0B82C01C0B92CA4FE0FC0FE01E80D27
:10072000F11D8081803321F49A2D997EA92E09C074
:10073000A2FE06C0B394B39404C08A2D867809F053
:10074000B394A3FC10C0A0FE06C0B21480F4280C21
:10075000922C9B180DC0B21458F4B60180E290E0C0
:1007600060D0B394F8CFB21418F42B1802C0982CB0
:10077000212CA4FE0FC0B60180E390E052D0A2FE6F
:1007800016C0A1FC03C088E790E002C088E590E0B5
:10079000B6010CC08A2D867851F0A1FE02C08BE212
:1007A00001C080E2A7FC8DE2B60190E03AD0891446
:1007B00030F4B60180E390E034D09A94F8CF8A9474
:1007C000F301E80DF11D8081B60190E02AD081107F
:1007D000F6CF222009F44ECEB60180E290E021D07F
:1007E0002A94F7CFF6018681978102C08FEF9FEFA1
:1007F0002B96E2E1CCC0FC010590615070400110E5
:10080000D8F7809590958E0F9F1F0895FC01615039
:10081000704001900110D8F7809590958E0F9F1F22
:1008200008950F931F93CF93DF93FB01238121FD45
:1008300003C08FEF9FEF2CC022FF16C04681578167
:10084000248135814217530744F4A081B1819D0171
:100850002F5F3F4F318320838C93268137812F5F19
:100860003F4F3783268314C08B01EC01FB010084CA
:10087000F185E02D0995892BE1F6D80116968D9129
:100880009C911797019617969C938E931697CE017D
:10089000DF91CF911F910F910895FA01AA27283077
:1008A00051F1203181F1E8946F936E7F6E5F7F4F3D
:1008B0008F4F9F4FAF4FB1E03ED0B4E03CD0670FB9
:1008C000781F891F9A1FA11D680F791F8A1F911D0C
:1008D000A11D6A0F711D811D911DA11D20D009F45C
:1008E00068943F912AE0269F11243019305D31939E
:1008F000DEF6CF010895462F4770405D4193B3E087
:100900000FD0C9F7F6CF462F4F70405D4A3318F02D
:10091000495D31FD4052419302D0A9F7EACFB4E0DE
:10092000A6959795879577956795BA95C9F7009796
:100930006105710508959B01AC010A2E0694579537
:10094000479537952795BA95C9F7620F731F841F8E
:10095000951FA01D08952F923F924F925F926F9224
:100960007F928F929F92AF92BF92CF92DF92EF923F
:10097000FF920F931F93CF93DF93CDB7DEB7CA1BC0
:10098000DB0B0FB6F894DEBF0FBECDBF09942A88EB
:10099000398848885F846E847D848C849B84AA8493
:1009A000B984C884DF80EE80FD800C811B81AA8120
:1009B000B981CE0FD11D0FB6F894DEBF0FBECDBFEB
:0809C000ED010895F894FFCF4A
:1009C800000000000000005F00000007000700149E
:1009D8007F147F14242A7F2A12231308646236495D
:1009E8005620500807030000001C22410000412245
:1009F8001C0014083E081408083E080800B07000DF
:100A080000080808080800606000002010080402B8
:100A18003E5149453E00427F4000724949494621BE
:100A280041494D331814127F1027454545393C4A32
:100A38004949314121110907364949493646494949
:100A4800291E000014000000403400000814224150
:100A58000014141414144122140800020159090640
:100A68003E415D594E7C1211127C7F494949363E00
:100A7800414141227F4141413E7F494949497F09DE
:100A88000909093E414151737F0808087F00417FE9
:100A980041002040413F017F081422417F404040EF
:100AA800407F020C027F7F0408107F3E4141413E97
:100AB8007F090909063E4151215E7F091929462609
:100AC8004949493201017F01013F4040403F1F2011
:100AD80040201F3F4038403F6314081463030478E4
:100AE80004036151494543007F4141000204081055
:100AF800200041417F000402010204404040404080
:100B0800070B00000020545478407F2844443838AC
:100B180044444428384444287F385454541800081E
:100B28007E090218A4A49C787F0804047800447DF8
:100B380040002040403D007F1028440000417F4095
:100B4800007C047804787C080404783844444438E9
:100B5800FC1824241818242418FC7C0804040848C9
:100B68005454542404043F44243C4040207C1C201A
:100B780040201C3C4030403C44281028444C909075
:100B8800907C4464544C44000836410000007700CF
:100B98000000413608000402040804007F417F0079
:100BA800202122232425262728292A2B2C2D2E2FC5
:100BB800303132333435363738393A3B3C3D3E3FB5
:100BC800404142434445464748494A4B4C4D4E4FA5
:100BD800505152535455565758595A5B5C5D5E5F95
:100BE800606162636465666768696A6B6C6D6E6F85
:100BF800707172737475767778797A7B687D7E61A7
:100C08002074206D2065206720612038004C6F61BA
:0C0C180064696E673A2000256400250026
:00000001FF
