:1000000012C019C018C017C016C015C014C013C044
:1000100012C011C010C00FC00EC00DC00CC00BC06C
:100020000AC009C008C011241FBECFE5D4E0DEBF5E
:10003000CDBF13D0E6C0E4CF181619066CF420E04B
:1000400030E0EFECF7E03197F1F700C000002F5FF0
:100050003F4F82179307A9F70895899ABFD0A1D07F
:1000600081E890E053D084E690E050D06DD080E2FB
:1000700090E04CD080E090E049D06EE670E08AE0FD
:1000800090E075D063E070E083E090E07DD081EA9D
:1000900090E03CD088EC90E039D0C0E0D0E01FEF99
:1000A0000FEFD12CE12EF12CC7013FD082E090E080
:1000B000C3DFC7013AD082E090E0BEDF80E090E08D
:1000C00034D080E090E031D082E090E0B5DFC7012D
:1000D0002CD082E090E0B0DFC70127D0CD30D10531
:1000E00081F41F3F21F482B312BA1D2D02C0919AF0
:1000F000102F6EE670E08AE090E039D0C1E0D0E0E9
:10010000D1CF2196CE30D1056CF2FFCFCF93C82F3F
:1001100068D088E790E06ED080E090E06BD08C2FC4
:1001200090E068D064D0CF910895CF93C82F59D074
:1001300088E790E05FD080E490E05CD08C2F90E086
:1001400059D055D0CF910895CF93DF934AD088E707
:1001500090E050D080E490E04DD0C0E0D4E080E06A
:10016000E4DF2197E1F743D0DF91CF910895CF935A
:10017000DF93D82FC62F81E2C9DF8D2FC7DF8C2FE9
:10018000C5DFDF91CF910895CF93DF93D82FC62F8E
:1001900082E2BCDF8D2FBADF8C2FB8DFDF91CF91E9
:1001A00008958DE8B3DF84E1B1DF80E2AFDF80E066
:1001B000ADDF81EAABDF88ECA9DF81E8A7DF84E669
:1001C000A5DF89EDA3DF81EFA1DF8FEA9FDF8FEB52
:1001D0009DE50197F1F700C00000089582E080B925
:1001E000089584EA86BF06B607FEFDCF089584E928
:1001F00086BF089583B984E886BF06B607FEFDCFA3
:060200000895F894FFCF01
:00000001FF
